{
  "transactions": [
    {
      "hash": "0x16188c6acfa7dda8e2a177e5b431c06cda393738acb79bf53d47fc6aeb6750ca",
      "transactionType": "CALL",
      "contractName": "LinkToken",
      "contractAddress": "0x779877A7B0D9E8603169DdbD7836e478b4624789",
      "function": "transferAndCall(address,uint256,bytes):(bool)",
      "arguments": [
        "0x8103B0A8A00be2DDC778e6e7eaa21791Cd364625",
        "3000000000000000000",
        "0x0000000000000000000000000000000000000000000000000000000000002904"
      ],
      "transaction": {
        "type": "0x02",
        "from": "0x7a22c801169cc2ed89336ddfadae52757a52ab8f",
        "to": "0x779877a7b0d9e8603169ddbd7836e478b4624789",
        "gas": "0x13fbe",
        "value": "0x0",
        "data": "0x4000aea00000000000000000000000008103b0a8a00be2ddc778e6e7eaa21791cd36462500000000000000000000000000000000000000000000000029a2241af62c0000000000000000000000000000000000000000000000000000000000000000006000000000000000000000000000000000000000000000000000000000000000200000000000000000000000000000000000000000000000000000000000002904",
        "nonce": "0x6e",
        "accessList": []
      },
      "additionalContracts": [],
      "isFixedGasLimit": false
    }
  ],
  "receipts": [
    {
      "transactionHash": "0x16188c6acfa7dda8e2a177e5b431c06cda393738acb79bf53d47fc6aeb6750ca",
      "transactionIndex": "0x6",
      "blockHash": "0x50971e0fde2cae941abc128a7340b6382996d81e2fef1254c34883556c890a26",
      "blockNumber": "0x54ddb0",
      "from": "0x7A22c801169cc2Ed89336DDfadae52757A52ab8f",
      "to": "0x779877A7B0D9E8603169DdbD7836e478b4624789",
      "cumulativeGasUsed": "0x4727d",
      "gasUsed": "0xe77e",
      "contractAddress": null,
      "logs": [
        {
          "address": "0x779877A7B0D9E8603169DdbD7836e478b4624789",
          "topics": [
            "0xddf252ad1be2c89b69c2b068fc378daa952ba7f163c4a11628f55a4df523b3ef",
            "0x0000000000000000000000007a22c801169cc2ed89336ddfadae52757a52ab8f",
            "0x0000000000000000000000008103b0a8a00be2ddc778e6e7eaa21791cd364625"
          ],
          "data": "0x00000000000000000000000000000000000000000000000029a2241af62c0000",
          "blockHash": "0x50971e0fde2cae941abc128a7340b6382996d81e2fef1254c34883556c890a26",
          "blockNumber": "0x54ddb0",
          "transactionHash": "0x16188c6acfa7dda8e2a177e5b431c06cda393738acb79bf53d47fc6aeb6750ca",
          "transactionIndex": "0x6",
          "logIndex": "0x3",
          "removed": false
        },
        {
          "address": "0x779877A7B0D9E8603169DdbD7836e478b4624789",
          "topics": [
            "0xe19260aff97b920c7df27010903aeb9c8d2be5d310a2c67824cf3f15396e4c16",
            "0x0000000000000000000000007a22c801169cc2ed89336ddfadae52757a52ab8f",
            "0x0000000000000000000000008103b0a8a00be2ddc778e6e7eaa21791cd364625"
          ],
          "data": "0x00000000000000000000000000000000000000000000000029a2241af62c0000000000000000000000000000000000000000000000000000000000000000004000000000000000000000000000000000000000000000000000000000000000200000000000000000000000000000000000000000000000000000000000002904",
          "blockHash": "0x50971e0fde2cae941abc128a7340b6382996d81e2fef1254c34883556c890a26",
          "blockNumber": "0x54ddb0",
          "transactionHash": "0x16188c6acfa7dda8e2a177e5b431c06cda393738acb79bf53d47fc6aeb6750ca",
          "transactionIndex": "0x6",
          "logIndex": "0x4",
          "removed": false
        },
        {
          "address": "0x8103B0A8A00be2DDC778e6e7eaa21791Cd364625",
          "topics": [
            "0xd39ec07f4e209f627a4c427971473820dc129761ba28de8906bd56f57101d4f8",
            "0x0000000000000000000000000000000000000000000000000000000000002904"
          ],
          "data": "0x0000000000000000000000000000000000000000000000004563918244f400000000000000000000000000000000000000000000000000006f05b59d3b200000",
          "blockHash": "0x50971e0fde2cae941abc128a7340b6382996d81e2fef1254c34883556c890a26",
          "blockNumber": "0x54ddb0",
          "transactionHash": "0x16188c6acfa7dda8e2a177e5b431c06cda393738acb79bf53d47fc6aeb6750ca",
          "transactionIndex": "0x6",
          "logIndex": "0x5",
          "removed": false
        }
      ],
      "status": "0x1",
      "logsBloom": "0x0000001400000000000000000000000000000000000000020000000002000000000000000000800000000000000000000000000000000000000000000000000000000000000000000000000800000000000000000000000080002000000000000000000000000000000000000000000000000000400000000000001000000000000000000c000020000004000000800010000020000000000000000000000000000200000000000000000000000000000000000000100000000400000000000000000002000000000000000000000000000000000000000100000000000000000000000000000000000000000000002000000000000000000100000000000000",
      "type": "0x2",
      "effectiveGasPrice": "0xb90eb146"
    }
  ],
  "libraries": [],
  "pending": [],
  "returns": {},
  "timestamp": 1711419409,
  "chain": 11155111,
  "multi": false,
  "commit": "142b14b"
}