{
  "transactions": [
    {
      "hash": "0x16188c6acfa7dda8e2a177e5b431c06cda393738acb79bf53d47fc6aeb6750ca",
      "transactionType": "CALL",
      "contractName": "LinkToken",
      "contractAddress": "0x779877A7B0D9E8603169DdbD7836e478b4624789",
      "function": "transferAndCall(address,uint256,bytes):(bool)",
      "arguments": [
        "0x8103B0A8A00be2DDC778e6e7eaa21791Cd364625",
        "3000000000000000000",
        "0x0000000000000000000000000000000000000000000000000000000000002904"
      ],
      "transaction": {
        "type": "0x02",
        "from": "0x7a22c801169cc2ed89336ddfadae52757a52ab8f",
        "to": "0x779877a7b0d9e8603169ddbd7836e478b4624789",
        "gas": "0x13fbe",
        "value": "0x0",
        "data": "0x4000aea00000000000000000000000008103b0a8a00be2ddc778e6e7eaa21791cd36462500000000000000000000000000000000000000000000000029a2241af62c0000000000000000000000000000000000000000000000000000000000000000006000000000000000000000000000000000000000000000000000000000000000200000000000000000000000000000000000000000000000000000000000002904",
        "nonce": "0x6e",
        "accessList": []
      },
      "additionalContracts": [],
      "isFixedGasLimit": false
    }
  ],
  "receipts": [],
  "libraries": [],
  "pending": [
    "0x16188c6acfa7dda8e2a177e5b431c06cda393738acb79bf53d47fc6aeb6750ca"
  ],
  "returns": {},
  "timestamp": 1711419403,
  "chain": 11155111,
  "multi": false,
  "commit": "142b14b"
}